:0400000002035C3269
:03000B000203638A
:0300110002000EDC
:03000E000202DA11
:20001400C2AFE539600312045AE537700BE53030E60675390112045A7401B5370BE53230D0
:20003400E60675390112045A753A00E53030E703753A01E53025E0FF8F30E53130E705E524
:200054003004F530E53125E0FF8F31E53A600AE53804F538E53104F531753A00E53230E765
:2000740003753A01E53225E0FF8F32E53330E705E53204F532E53325E0FF8F33E53A600A00
:20009400E53804F538E53304F53375828012058B753B80E53B601CE53B55306008758202CF
:2000B4001205D780067582201205D7E53BC313F53B80E0753B807401B53B02801CE53B5585
:2000D4003160087582021205D780067582201205D7E53BC313F53B80DD7582C012058B75B0
:2000F4003B80E53B601CE53B553260087582021205D780067582201205D7E53BC313F53BEE
:2001140080E0753B807401B53B02801CE53B553360087582021205D780067582201205D7B6
:20013400E53BC313F53B80DDE537700E75828012058B7582011205D7800C7582C012058BAA
:200154007582011205D7D2AF12045A020014120751E58260F912075E858235D20010AF022E
:20017400C2007432B5352B7401B53726E53030E70675390112045A7537007582C012058B11
:200194007582201205D775828012058B7582011205D77438B5352AE5377026E53230E706A1
:2001B40075390112045A75370175828012058B7582201205D77582C012058B7582011205D9
:2001D400D7A20092AF120751E58270F9020162E53970030202D4C2AF75828012058B7582C8
:2001F400471205D77582411205D775824D1205D77582451205D77582201205D775824F12D7
:2002140005D77582561205D77582451205D77582521205D77582201205D77582201205D748
:200234007582201205D77582201205D77582201205D77582201205D77582C012058B758246
:20025400531205D77582631205D775826F1205D77582721205D77582651205D775822012E3
:2002740005D775823A1205D7AE387F00751B0A8F1C8E828F831208A2AE8274302EF582125C
:2002940005D7AE387F00751B0A8F1C8E828F8312086CAE8274302EF5821205D7758220128C
:2002B40005D77582201205D77582201205D77582201205D77582201205D77582200205D745
:2002D40012045A0201E312074B12052A75820712058B75820C12058B7530217531C47532F3
:2002F40008753311C2AF753400753900753800753700120751E58260F912075E8582351219
:200314000751E58270F97423B53506E534701180E1742AB5350280DAE53524D0F53480D2B2
:200334009000141203DF9001621203DF758900E534C454F0F58C758A0075A882D28C12017B
:13035400E3C2AF1205228090020367222222220203853249
:20036700752A009002DA1203DF858229E5292425F98781D0D0D083D082D0F0D0E022C2AFA7
:20038700C0E0C0F0C082C083C0D0E5292425F8A68174FD2529400AAF290FEFFE3395E08076
:2003A700027E008E298529F005F07401800225E0D5F0FBF52EE52E552A60D6E534FFC45495
:2003C700F0F58CD2AFE5292425F98781D0D0D083D082D0F0D0E03222740FB52A047582FF67
:2003E70022D20110AF02C201752B007404B52B028029752E01852BF005F0E52E800225E007
:20040700D5F0FBF52EE52E552A7009E52E422A852B2D8007E52B04F52B80D085812CE52D3C
:20042700C454F0FF243FF581C082C0835400C0E0C0E0C0E0C0E0E52DFFC40354F8F5D0C0D3
:20044700D0E52D2425F8A681852C81A20192AF852D8222C2AFC0E0C0F0C082C083C0D0E524
:20046700292425F8A68174FD2529400AAF290FEFFE3395E080027E008E298529F005F074A1
:2004870001800225E0D5F0FBF52EE52E552A60D6E534FFC454F0F58CD2AFE5292425F98729
:2004A70081D0D0D083D082D0F0D0E022D20210AF02C2028529F005F07401800225E0D5F030
:2004C700FBFF622A752B0074FC252B402E852BF005F07E017F008006EE2EFEEF33FFD5F0A8
:2004E700F7AC2A7D00EC5206ED5207EE4F6005852B298007E52B04F52B80CC7404B52B0344
:1F0507007529FFE5292425F98781D0D0D083D082D0F0D0E0D2AFA20292AF22752A0122E1
:20052600853E82221205AD75820712058B75820F12058B750807750905750A06750B0775BA
:200546000C14750D17750E0E750F0A751808751900751A4075820812063A75100475110566
:2005660075121575131575141675150C751604751704751810751900751A407582101206CF
:200586003A753E0122AF82753E0074F05FF590D292C292EFC454F0F590D292C29275823204
:2005A600120636753E0122753E00759020D292C292758232120636D292C292758232120611
:2005C60036D297D292C292758232120636753E0122AF82753E0074F05F4408F590D293D2C2
:2005E60092C292EFC454F0FF74084FF590D292C292758232120636753E0122AD82AE83AFB5
:20060600F08D828E838FF0120850FCA3AD82AE83EC601C8D828E838FF0120850F582C0072D
:20062600C006C0051205D7D005D006D00780D222D582FD22AF8274404FF58212058BAD18BD
:20064600AE19AF1A8D828E838FF0120850F582C007C006C0051205D7D005D006D00774014D
:200666002DFAE43EFB8F048A828B838CF0120850F582C007C006C0051205D7D005D006D06B
:200686000774022DFAE43EFB8F048A828B838CF0120850F582C007C006C0051205D7D00574
:2006A600D006D00774032DFAE43EFB8F048A828B838CF0120850F582C007C006C005120559
:2006C600D7D005D006D00774042DFAE43EFB8F048A828B838CF0120850F582C007C006C0A8
:2006E600051205D7D005D006D00774052DFAE43EFB8F048A828B838CF0120850F582C007F1
:20070600C006C0051205D7D005D006D00774062DFAE43EFB8F048A828B838CF0120850F592
:2007260082C007C006C0051205D7D005D006D00774072DFDE43EFE8D828E838FF0120850A1
:05074600F5820205D759
:20074B00D2B37580F0227580F0A2B3B39203E433F582227580F774B7B580047582312274C2
:20076B00D7B580047582322274E7B58004758233227580FB74BBB580047582342274DBB58A
:20078B0080047582352274EBB58004758236227580FD74BDB580047582372274DDB580045F
:2007AB007582382274EDB58004758239227580FE74BEB5800475822A2274DEB580047582CE
:0F07CB00302274EEB580047582232275820022DD
:2007DA00E51B451C60467A01E51B25E0F51BE51C334012F51CE582951BE583951C40030A54
:2007FA0080E6C3E51C13F51CE51B13F51BC3E582951BF5F0E583951C4005F58385F082C31F
:0D081A00E51C13F51CE51B13F51BDAE122AC
:200827007A10E4FBFCE58225E0F582E58333F583EB33FBEC33FCEB951BF5F0EC951C4006BF
:09084700FCABF0438201DADD2272
:1C08500020F71430F6148883A88220F507E6A88375830022E280F7E49322E022B7
:20086C00C2D5E58330E70DD2D5E4C39582F582E49583F583E51C30E70BE4C3951BF51BE48B
:16088C00951CF51C1207DA30D50BE4C39582F582E49583F58322C6
:2008A200C2D5E58330E70DD2D5E4C39582F582E49583F583E51C30E70DB2D5E4C3951BF5CB
:1808C2001BE4951CF51C12082730D50BE4C39582F582E49583F5832241
:00000001FF
