:0400000002011F32A8
:03000B00020126C9
:0300110002000EDC
:03000E000200FEEF
:200014001203C7E58260F9D20010AF02C2001203D9858233A20092AFE53560FC20E7F91545
:2000340035E53460FC20E7F91534E5372430F8A6337402B537067E007F008009AD370DEDAC
:20005400FE3395E0FF8E37053405361203C7E58260AE80F712046BE58260F9D20110AF0211
:20007400C201120478858239A20192AFE53560FC20E7F91535E53460FC20E7F91534E5375D
:200094002430F8A6397402B537067E007F008009AD370DEDFE3395E0FF8E37053405361265
:2000B400046BE58260AE80F7753800E53660FC20E7F91536E53460FC20E7F91534E5382463
:2000D40030F9873A053405357402B538047E008008AD380DEDFE3395E08E38853A821203A1
:2000F40064120301E58270C380F77537001204651203057536007534017535039000BC12C0
:1601140001DC9000681201DC02001402012A2222222202015332BE
:20012A00752A00752F0175890075A882D28C9000FE1201DC858229E5292425F98781D0D0D1
:20014A00D083D082D0F0D0E022C2AFC0E0C0F0C082C083C0D0E5292425F8A681E52F602876
:20016A007403B52903D38001C3B39202E433F52F7403B529067E027F008009AD290DEDFED3
:20018A003395E0FF8E29801FE4B5290474018001E4F52FE52970057E01FF8009AD291DED2A
:2001AA00FE3395E0FF8E298529F005F07401800225E0D5F0FBF52EE52E552A609FE52924A4
:2001CA0025F98781D0D0D083D082D0F0D0E0D2AF3222C2AF740FB52A047582FF22752B00D6
:2001EA007404B52B028029752E01852BF005F0E52E800225E0D5F0FBF52EE52E552A700931
:20020A00E52E422A852B2D8007E52B04F52B80D085812CE52DC454F0FF243FF581C082C047
:20022A00835400C0E0C0E0C0E0C0E0E52DFFC40354F8F5D0C0D0E52D2425F8A681852C8138
:20024A00D2AF852D8222C2AFC0E0C0F0C082C083C0D0E5292425F8A68174FD2529400BAFB8
:20026A00290FEFFE3395E0FF80047E007F008E298529F005F07401800225E0D5F0FBF52EFE
:20028A00E52E552A60D3D2AFE5292425F98781D0D0D083D082D0F0D0E022C2AF8529F005CB
:2002AA00F07401800225E0D5F0FBF52EE52E622A752B0074FC252B4022852BF005F07401FA
:2002CA00800225E0D5F0FBF52EE52A552E6005852B298007E52B04F52B80D87404B52B036C
:1702EA007529FFE5292425F98781D0D0D083D082D0F0D0E0D2AF22B0
:20030100853E822212033A75820712031875820F120318753E0122AF82753E0074F05FF556
:2003210090D292C292EFC454F0F590D292C2927582281203C3753E0122753E00759020D2C9
:2003410092C2927582281203C3D292C2927582281203C3D297D292C2927582281203C37583
:200361003E0122AF82753E0074F05F4408F590D293D292C292EFC454F0FF74084FF590D26E
:2003810092C2927582281203C3753E0122AD82AE83AFF08D828E838FF01204F4FCA3AD8233
:2003A100AE83EC601C8D828E838FF01204F4F582C007C006C005120364D005D006D00780B6
:0603C100D222D582FD22CC
:2003C700E5A0F4F53CE53CB40100B39203E433F58222AEA07F00EEF4FEEFF4EE30E7047590
:2003E700823722AEA07F00EEF4FEEFF4EE30E60475823622AEA07F00EEF4FEEFF4EE30E5A1
:200407000475823522AEA07F00EEF4FEEFF4EE30E40475823422AEA07F00EEF4FEEFF4EE22
:2004270030E30475823322AEA07F00EEF4FEEFF4EE30E20475823222AEA07F00EEF4FEEFD7
:1E044700F4EE30E10475823122AEA07F00EEF4FEEFF4EE30E004758230227582002262
:20046500D2B37580F0227580F0A2B3B39204E433F582227580F774B7B580047582312274AA
:20048500D7B580047582322274E7B58004758233227580FB74BBB580047582342274DBB573
:2004A50080047582352274EBB58004758236227580FD74BDB580047582372274DDB5800448
:2004C5007582382274EDB58004758239227580FE74BEB5800475822A2274DEB580047582B7
:0F04E500302274EEB580047582232275820022C6
:1C04F40020F71430F6148883A88220F507E6A88375830022E280F7E49322E02217
:00000001FF
