:040000000200C13207
:03000B000200C828
:0300110002000EDC
:03000E000200AF3E
:20001400753341753700E53560FC20E7F91535E53460FC20E7F91534E5372430F8A6330573
:20003400347402B537067E007F008009AD370DEDFE3395E0FF8E370536745AB533067E418C
:200054007F008009AD330DEDFE3395E0FF8E3380B5C2AF438920758DFA759850D28ED2AF78
:20007400753800E53660FC20E7F91536E53460FC20E7F91534E5382430F987990534740206
:20009400B538067E007F008009AD380DEDFE3395E0FF8E3805351099CA80FB75360075340D
:1800B400017535039000141201470200650200CC222222220200F232A5
:2000CC00752A0075890075A882D28C9000AF120147858229E5292425F98781D0D0D083D096
:2000EC0082D0F0D0E022C2AFC0E0C0F0C082C083C0D0E5292425F8A68174FD2529400BAFDB
:20010C00290FEFFE3395E0FF80047E007F008E298529F005F07401800225E0D5F0FBF52E5D
:20012C00E52E552A60D3E5292425F98781D0D0D083D082D0F0D0E0D2AF3222740FB52A04A6
:20014C007582FF22D20010AF02C200752B007404B52B028029752E01852BF005F0E52E80B7
:20016C000225E0D5F0FBF52EE52E552A7009E52E422A852B2D8007E52B04F52B80D0858111
:20018C002CE52DC454F0FF243FF581C082C0835400C0E0C0E0C0E0C0E0E52DFFC40354F8B8
:2001AC00F5D0C0D0E52D2425F8A681852C81A20092AF852D8222C2AFC0E0C0F0C082C083B3
:2001CC00C0D0E5292425F8A68174FD2529400BAF290FEFFE3395E0FF80047E007F008E2950
:2001EC008529F005F07401800225E0D5F0FBF52EE52E552A60D3D2AFE5292425F98781D013
:20020C00D0D083D082D0F0D0E022C2AF8529F005F07401800225E0D5F0FBF52EE52E622A49
:20022C00752B0074FC252B4022852BF005F07401800225E0D5F0FBF52EE52A552E60058500
:20024C002B298007E52B04F52B80D87404B52B037529FFE5292425F98781D0D0D083D08296
:07026C00D0F0D0E0D2AF2278
:00000001FF
