:0300000002006299
:03000600020003F2
:03000300020056A2
:20000900753B41E53C600512010C80F7853B3A753C01745AB53B047E418008AD3B0DEDFE35
:200029003395E08E3B80DC758920758DFA759850D28EE53C700512010C80F7853A99753CDE
:200049000020990512010C80F8C29980E5753C00900009120087020030020069222222227A
:20006900753500900056120087858234E5342430F98781D0D0D083D082D0F0D0E022740F4B
:20008900B535047582FF227536007404B53602803E8536F005F07E017F008006EE2EFEEF56
:2000A90033FFD5F0F7AC357D00EC5206ED5207EE4F70158536F005F07401800225E0D5F03E
:2000C900FB42358536388007E53604F53680BB858137E538C454F0FF243FF581C082C083E7
:2000E9005400C0E0C0E0C0E0C0E0E538FFC40354F8F5D0C0D0E5382430F8A681853781854D
:20010900388222C0E0C0F0C082C083C0D0E5342430F8A68174FD2534400AAF340FEFFE33E3
:2001290095E080027E008E348534F005F07E017F008006EE2EFEEF33FFD5F0F7AC357D0008
:20014900EC5206ED5207EE4F60CAE5342430F98781D0D0D083D082D0F0D0E0228534F005B2
:20016900F07401800225E0D5F0FBF539E539623575360074FC253640228536F005F07401FA
:20018900800225E0D5F0FBF539E535553960058536348007E53604F53680D87404B5360356
:1501A9007534FFE5342430F98781D0D0D083D082D0F0D0E02254
:00000001FF
