:0400000002007D324B
:03000B000200846C
:0300110002000EDC
:03000E000200717C
:20001400753B41E53C70FCD20010AF02C200853B3A753C01A20092AF745AB53B047E418069
:2000340008AD3B0DEDFE3395E08E3B80D6D20110AF02C201438920758DFA759850D28EA25F
:200054000192AFE53C60FCD20110AF02C201853A99753C00A20192AF1099E880FB753C00CC
:14007400900014120103020041020088222222220200AE3287
:2000880075350075890075A882D28C900071120103858234E5342430F98781D0D0D083D030
:2000A80082D0F0D0E022C2AFC0E0C0F0C082C083C0D0E5342430F8A68174FD2534400BAFFE
:2000C800340FEFFE3395E0FF80047E007F008E348534F005F07401800225E0D5F0FBF53976
:2000E800E539553560D3E5342430F98781D0D0D083D082D0F0D0E0D2AF3222740FB53504B4
:200108007582FF22D20210AF02C2027536007404B5360280297539018536F005F0E53980C0
:200128000225E0D5F0FBF539E53955357009E53942358536388007E53604F53680D08581F2
:2001480037E538C454F0FF243FF581C082C0835400C0E0C0E0C0E0C0E0E538FFC40354F8DB
:20016800F5D0C0D0E5382430F8A681853781A20292AF85388222D20310AF02C203C0E0C054
:20018800F0C082C083C0D0E5342430F8A68174FD2534400BAF340FEFFE3395E0FF80047E29
:2001A800007F008E348534F005F07401800225E0D5F0FBF539E539553560D3E5342430F92D
:2001C8008781D0D0D083D082D0F0D0E0A20392AF22C2AF8534F005F07401800225E0D5F082
:2001E800FBF539E539623575360074FC253640228536F005F07401800225E0D5F0FBF539B7
:20020800E535553960058536348007E53604F53680D87404B536037534FFE5342430F987B6
:0E02280081D0D0D083D082D0F0D0E0D2AF22EF
:00000001FF
