:0400000002011532B2
:03000B0002011CD3
:0300110002000EDC
:03000E000200FAF3
:20001400753341E53560FC20E7F91535E53460FC20E7F91534E5372430F8A6330534740275
:20003400B537067E007F008009AD370DEDFE3395E0FF8E370536745AB533067E417F008037
:2000540009AD330DEDFE3395E0FF8E3380B5753930E53560FC20E7F91535E53460FC20E7F4
:20007400F91534E5372430F8A63905347402B537067E007F008009AD370DEDFE3395E0FF39
:200094008E3705367439B539067E307F008009AD390DEDFE3395E0FF8E3980B5C2AF438937
:2000B40020758DFA759850D28ED2AF753800E53660FC20E7F91536E53460FC20E7F91534A5
:2000D400E5382430F9879905347402B538067E007F008009AD380DEDFE3395E0FF8E38050B
:2000F400351099CA80FB7537007536007534017535039000B01201C59000621201C5020037
:0C011400140201202222222202014932A2
:20012000752A00752F0175890075A882D28C9000FA1201C5858229E5292425F98781D0D0F6
:20014000D083D082D0F0D0E022C2AFC0E0C0F0C082C083C0D0E5292425F8A681E52F602187
:200160007403B52903D38001C3B39200E433F52F7403B529057529028020E52904F5298046
:2001800019E4B5290474018001E4F52FE52970057529018005E52914F5298529F005F07494
:2001A00001800225E0D5F0FBF52EE52E552A60ACE5292425F98781D0D0D083D082D0F0D009
:2001C000E0D2AF3222C2AF740FB52A047582FF22752B007404B52B028029752E01852BF094
:2001E00005F0E52E800225E0D5F0FBF52EE52E552A7009E52E422A852B2D8007E52B04F596
:200200002B80D085812CE52DC454F0FF243FF581C082C0835400C0E0C0E0C0E0C0E0E52DD4
:20022000FFC40354F8F5D0C0D0E52D2425F8A681852C81D2AF852D8222C2AFC0E0C0F0C053
:2002400082C083C0D0E5292425F8A68174FD2529400BAF290FEFFE3395E0FF80047E007FCD
:20026000008E298529F005F07401800225E0D5F0FBF52EE52E552A60D3D2AFE5292425F9BF
:200280008781D0D0D083D082D0F0D0E022C2AF8529F005F07401800225E0D5F0FBF52EE5B7
:2002A0002E622A752B0074FC252B4022852BF005F07401800225E0D5F0FBF52EE52A552EBC
:2002C0006005852B298007E52B04F52B80D87404B52B037529FFE5292425F98781D0D0D00D
:0A02E00083D082D0F0D0E0D2AF222C
:00000001FF
